:020000040800F2
:10000000780600243903000867110008E31000088F
:10001000651100083F040008FD1200080000000000
:100020000000000000000000000000006B1100084C
:100030004104000800000000691100086D1100086B
:100040005303000853030008530300085303000838
:100050005303000853030008530300085303000828
:100060005303000853030008530300085303000818
:100070005303000853030008530300085303000808
:1000800053030008530300085303000853030008F8
:1000900053030008530300085303000853030008E8
:1000A00053030008530300085303000853030008D8
:1000B00053030008530300085303000853030008C8
:1000C00053030008530300085303000853030008B8
:1000D00053030008530300085303000853030008A8
:1000E00053030008530300080000000053030008F6
:1000F0005303000853030008530300085303000888
:100100005303000853030008530300085303000877
:100110005303000853030008530300085303000867
:100120005303000853030008530300085303000857
:100130005303000853030008530300085303000847
:1001400000000000000000000000000000000000AF
:100150005303000853030008530300085303000827
:100160005303000853030008530300085303000817
:100170005303000853030008530300085303000807
:1001800053030008530300085303000853030008F7
:1001900053030008530300085303000853030008E7
:1001A00053030008530300085303000853030008D7
:1001B00053030008530300085303000853030008C7
:1001C00053030008530300085303000853030008B7
:1001D00053030008530300085303000853030008A7
:1001E0005303000853030008530300085303000897
:1001F0005303000853030008530300085303000887
:100200005303000853030008530300085303000876
:100210005303000853030008530300085303000866
:1002200053030008530300085303000800000000B4
:1002300053030008530300080000000053030008A4
:100240005303000853030008530300085303000836
:100250005303000853030008530300085303000826
:100260005303000853030008530300085303000816
:100270005303000853030008530300080000000064
:100280005303000853030008530300080000000054
:10029000000000005303000800F002F800F03CF8F2
:1002A0000AA090E8000C82448344AAF10107DA45D1
:1002B00001D100F031F8AFF2090EBAE80F0013F0E7
:1002C000010F18BFFB1A43F001031847A4100000E8
:1002D000C4100000103A24BF78C878C1FAD8520779
:1002E00024BF30C830C144BF04680C6070470000B0
:1002F0000023002400250026103A28BF78C1FBD82F
:10030000520728BF30C148BF0B6070471FB501F0CE
:1003100021F81FBD10B510BD00F058F81146FFF7C9
:10032000F5FF00F0FDFF00F076F803B4FFF7F2FFF1
:1003300003BC00F07DF800000948804709480047E9
:10034000FEE7FEE7FEE7FEE7FEE7FEE7FEE7FEE785
:10035000FEE7FEE704480549054A064B70470000E2
:100360001912000899020008780000247806002479
:1003700078020024780200244FF0000200B51346F2
:1003800094469646203922BFA0E80C50A0E80C50B5
:10039000B1F12001BFF4F7AF090728BFA0E80C5066
:1003A00048BF0CC05DF804EB890028BF40F8042B5F
:1003B00008BF704748BF20F8022B11F0804F18BFCC
:1003C00000F8012B7047704770477047754600F082
:1003D0002BF8AE4605006946534620F007008546D7
:1003E00018B020B5FFF7B6FFBDE820404FF000067B
:1003F0004FF000074FF000084FF0000B21F007010D
:10040000AC46ACE8C009ACE8C009ACE8C009ACE84F
:10041000C0098D46704710B50446AFF300802046F2
:10042000BDE81040FFF781BF00487047140000246A
:1004300001491820ABBEFEE7260002007047FEE728
:10044000704700002DE9FC4F01257E4C00234FF042
:10045000030A4FF0B04E4FF00F0BEBE005FA03F636
:1004600037403A0077D04F68012F05D0022F03D0D4
:10047000112F01D0122F1AD187684FEA4308D1F803
:100480000CC00AFA08F927EA09070CFA08FC4CEA3A
:10049000070CC0F808C0476891F804C0B743CCF314
:1004A000001C0CFA03FC4CEA070CC0F804C0C66838
:1004B0004FEA430CD1F80880E1460AFA0CF7BE4334
:1004C000019708FA09F848EA0608C0F80C804E6857
:1004D000022E01D0122E12D1DE084FEA437C00EB2F
:1004E000860600960F69366A4FEADC6C0BFA0CF848
:1004F00007FA0CF726EA08063743009E37620E79A2
:100500000768DDF804C006F0030606FA09F627EAD4
:100510000C073E4306604E68F6001CD54A4E37680D
:1005200047F00207376036689F0706F0020600961C
:1005300023F0030606F1B046B1463F0FD6F8086433
:10054000DFF808810BFA07FC404526EA0C0603D1C8
:100550004FF0000C41E06CE0DFF8F4C0604502D1E0
:100560004FF0010C39E0DFF8ECC0604502D14FF0EC
:10057000020C32E0DFF8E0C0604502D14FF0030C1E
:100580002BE0DFF8D8C0604502D14FF0040C24E026
:10059000DFF8CCC0604502D14FF0050C1DE0DFF85C
:1005A000C4C0604502D14FF0060C16E0DFF8B8C0B9
:1005B000604502D14FF0070C0FE0DFF8B0C0604596
:1005C00002D14FF0080C08E0DFF8A4C0604502D16A
:1005D0004FF0090C01E04FF00A0C0CFA07FC4CEA52
:1005E000060CC9F808C426684F6826EA0206FF030D
:1005F00000D51643266066684F6826EA0206BF03E8
:1006000000D516436660D1F804C07646DEF8007067
:100610005FEACC2C27EA020700D517433760D1F8F0
:1006200004C077685FEA8C2C27EA020700D51743DD
:1006300077605B1C0A681746DA407FF40FAFBDE8AD
:10064000FC8F000080000058F4440258000002585B
:100650000004025800080258000C0258001002580A
:100660000014025800180258001C025800200258BA
:10067000002402580069084000D0012070470AB1E8
:10068000816170470904FBE701480068000C70476E
:100690000010005C014880687047000000000024E2
:1006A000024881680278114481607047000000248C
:1006B000032010B500F078F800F0E0F90F4A104977
:1006C00014681368C4F3032203F00F038A5CC95C47
:1006D00002F01F0201F01F01D0400A4A20FA01F186
:1006E000116009490860002000F010F808B10120ED
:1006F00010BD00F02BF8002010BD00001844025877
:100700005E130008100000240C00002470B50D4D8D
:1007100004462878A0B14FF47A71B1FBF0F00A4991
:100720000968B1FBF0F000F0C9FC48B9102C07D201
:1007300000222146501E00F017F800206C6070BDAA
:10074000012070BD000000240C000024054808B5FD
:10075000016841F002010160006800F002000090B1
:1007600008BD0000F44402580E4BF0B41B680D465F
:10077000C3F30223C3F10706042E00D90426191D72
:10078000072901D2002300E0DB1E012404FA06F150
:100790009C40491E2940641E994014402143F0BCEE
:1007A00000F0ADBD0CED00E0064900F0070210B509
:1007B0004FF6FF040868044B204040EA022018432B
:1007C000086010BD0CED00E00000FA05134970B59B
:1007D0000A68D243520705D5096801F00701814232
:1007E00013D118E00A6822F0070202430A60FFF7FB
:1007F00051FF0A4D4FF47A760446083D07E000BFEA
:10080000FFF748FF001BB04201D9012070BD2868E6
:10081000C0438004F4D4002070BD00000C4802588E
:100820002DE9F05F04000F467ED0DFF83882D8F85B
:10083000000000F00F00B8420CD2D8F8001021F0F0
:100840000F013943C8F80010D8F8000000F00F007D
:10085000B84269D12078844D40070AD520692968BB
:1008600001F07001884204D9296821F07001014328
:10087000296020787C4E361D00070AD560693168F2
:1008800001F07001884204D9316821F07001014300
:1008900031602078C0060AD5A069316801F4E061B2
:1008A000884204D9316821F4E06101433160207845
:1008B000DFF8B4B180060BF1080B0CD5E16958469E
:1008C000DBF8002002F07002914204D9026822F0A5
:1008D00070020A430260207880070AD5E068296820
:1008E00001F00F01884204D9296821F00F0101436A
:1008F00029602078C0073ED05B49A2682868183973
:1009000020F47060104328606068022818D0032823
:1009100019D00968012819D0490700294ADADFF8F7
:1009200048A1AAF1080A00E044E0DAF8002022F029
:1009300007020243CAF80020FFF7ACFE814612E02E
:1009400009688903E9E709688901E6E7C905E4E779
:10095000FFF7A0FEA0EB090141F28830814202D9E5
:100960000320BDE8F09F6168DAF8000000F038006D
:10097000B0EBC10FECD1207880070AD5E068296878
:1009800001F00F01884204D2296821F00F010143D0
:100990002960D8F80010404601F00F01B9420BD988
:1009A000016821F00F0139430160006800F00F0079
:1009B000B84201D00120D4E7207840070AD5206949
:1009C000296801F07001884204D2296821F0700181
:1009D00001432960207800070AD56069316801F079
:1009E0007001884204D2316821F070010143316006
:1009F0002078C0060AD5A069316801F4E061884218
:100A000004D2316821F4E06101433160207880062E
:100A10000CD5E1695846DBF8002002F070029142E3
:100A200004D2026822F070020A43026000F026F845
:100A30000E492A682B68C2F3032203F00F038A5C75
:100A4000C95C02F01F0201F01F01D040084A20FAE1
:100A500001F111600749086007480068BDE8F05FD0
:100A6000FFF754BE00200052184402585E130008DD
:100A7000100000240C00002404000024454970B537
:100A800045480968434B103B11F0380208D001116A
:100A9000082A03D0102A0BD0182A0BD0084670BDA4
:100AA00019688906FBD51968C1F3C101C84070BD3A
:100AB0003A4870BD3749374D18310C1D24350A6846
:100AC000096826682D6802F0030406F00102C1F3EC
:100AD0000511C5F3CC0515FB02F200EE102AB8EEA5
:100AE000400AE9B32F4ADFED2E0AB7EE001A6CB1C7
:100AF000DFED2D1A012C01D0022C43D002EE101A8A
:100B00001068F8EE422A81EEA22A1EE01C68A406B4
:100B100011D51B6801EE901A1168C3F3C103F8EEFA
:100B2000612AD84001EE900AC1F30800F8EE611A7C
:100B300081EEA22A0BE001EE901ADFED1C2A00BF25
:100B4000F8EE611A106882EEA12AC0F3080001EEE7
:100B5000900AF8EE611A40EE201A31EE810A00E0A8
:100B600015E022EE000A1068C0F34620401C00EE9B
:100B7000900AF8EE600A80EE201ABCEEC10A10EE70
:100B8000100A70BD01EE901ADFED092AD8E70020A7
:100B900070BD0000104402580090D00340787D01E1
:100BA00000000039304402580024744A0024744C78
:100BB00020BCBE4B2DE9F05F04007CD0FF4F2078B5
:100BC000FE4D1837DFF8F493103DC00748D0D9F830
:100BD0000000396800F03800102815D0182803D11B
:100BE00001F0030002280FD06068B0F5803F12D0FA
:100BF00010B1B0F5A02F18D0286820F480302860FC
:100C0000286820F4802009E02868800328D56068DF
:100C10000028D2D024E0286840F480302860606842
:100C200088B1FFF737FD064609E0286840F48020C8
:100C30002860F0E7FFF72EFD801B64287ED8286827
:100C40008003F7D50CE0FFF725FD064605E000BF61
:100C5000FFF720FD801B6428F0D828688003F7D4B4
:100C6000207841F20308D54E0C3E800753D5D9F8C1
:100C70000000396810F038000ED0182801D188071C
:100C80000AD0E068A8B3296821F01901014329605E
:100C9000FFF700FD82461BE02868400702D5E068A8
:100CA00000288AD0FFF7F0FC40451BD82069402877
:100CB00012D0316800E0CCE021F47C3141EA003010
:100CC000306028E0FFF7E6FCA0EB0A000228B5D868
:100CD00028684007F6D5E5E7306820F47C3040F41A
:100CE0000030EDE7207C316821F0FE4141EA0060F0
:100CF000E6E7FFE7286820F001002860FFF7CAFC5C
:100D0000824605E0FFF7C6FCA0EB0A00022895D852
:100D100028684007F6D42078C0065FD5D9F80000CF
:100D2000DFF898B2396800F03800ABF1040B0828FE
:100D300012D0182805D101F0030000E0EAE00128F4
:100D40000AD0E0690028286838D040F08000286088
:100D5000FFF7A0FC824623E02868C00523D5E069A0
:100D6000802876D11FE0206A202821D0316821F028
:100D7000F84141EA8060306030E000BF94F8201014
:100D8000DBF8002022F07C5242EA0161CBF800102F
:100D900024E000BFFFF77EFCA0EB0A00022896D8F3
:100DA0002868C005F6D5FFF76FFC4045E6D8DAE7BE
:100DB000306820F0F84040F08040DCE720F0800010
:100DC0002860FFF767FC064605E000BFFFF762FCFE
:100DD000801B02289BD82868C005F7D4207800071C
:100DE00029D576486169643000298046016811D0B0
:100DF00041F001010160FFF74DFC064605E000BF30
:100E0000FFF748FC801B0228C9D8D8F800008007EB
:100E1000F6D510E021F001010160FFF73BFC06462A
:100E200005E000BFFFF736FC801B022872D8D8F817
:100E300000008007F6D42078800623D5A06900281A
:100E4000286810D040F480502860FFF723FC064645
:100E500005E02CE1FFF71EFC801B02285AD8286809
:100E60008004F7D50EE020F480502860FFF712FCD4
:100E7000064604E0FFF70EFC801B02284AD82868CB
:100E80008004F7D4207840074FD5DFF83481D8F8B4
:100E9000001041F48071C8F80010FFF7FBFB064614
:100EA00005E000BFFFF7F6FB801B642832D8D8F8B6
:100EB0000000C005F6D5414EA068603601280AD072
:100EC00008B1052813D0306820F001003060306888
:100ED00020F0040002E0306840F001003060A068BB
:100EE00041F2883A90B1FFF7D5FB80460AE03068BE
:100EF00040F004003060EEE7FFF7CCFBA0EB080108
:100F0000514507D830688007F6D50EE0FFF7C2FBE1
:100F1000804607E084E000BFFFF7BCFBA0EB0801C0
:100F200051457DD830688007F6D4606AF0B3DFF8A9
:100F30008C80D9F8001008F12008C1F3C201032900
:100F40006FD00228286820F08070286003D0FFF757
:100F5000A1FB044680E0FFF79DFB064605E000BFCD
:100F6000FFF798FB801B022873D828688001F7D40C
:100F7000E26A40F2F331386854F8283F884340EA87
:100F8000021018433860217B4FF4FE0C22894FF089
:100F9000FE47208A4902267D521E401EA1F500719F
:100FA00089B20CEA0040C2F3080200E081E011437C
:100FB000761E0143014807EA066203E01044025826
:100FC000004802581C3011433B4AC8F80010016821
:100FD00021F00101016011684FF6F876236AB143F0
:100FE00041EAC30111600168A26921F00C011143BB
:100FF00001600168E26921F00201114301600168AA
:1010000041F480310160016841F400310160016800
:1010100041F480210160016841F00101016001E0BB
:1010200017E01DE0286840F080702860FFF732FB71
:10103000044604E0FFF72EFB001B022809D82868AD
:101040008001F7D535E000BFFFF724FB001B022825
:1010500002D90320BDE8F09F28688001F4D428E07D
:1010600039680128D8F8000021D0A26A01F00303F2
:1010700093421CD1E26AC1F305118A4217D1216B58
:10108000C0F30802491E8A4211D1616BC0F34622A7
:10109000491E91420BD1A16BC0F30642491E9142F9
:1010A00005D1E16BC0F30660491E814201D00120E9
:1010B000D0E70020CEE7000034440258401EB0F1D3
:1010C000807F10B501D3012010BD4FF0E024606196
:1010D0000F21601700F013F90020A06107212161A2
:1010E00010BDFEE730B587B014216846FFF744F91C
:1010F0001948016841F080010160016801F0800138
:101100000591016841F001010160016801F00101F0
:101110000591016841F008010160006801220F4D4E
:10112000022100F0080005902846FFF7A8FA0024E5
:10113000022001218DE81300694628460394FFF739
:1011400081F980206946CDE9000405480294FFF743
:1011500079F907B030BD0000E044025800000258A1
:10116000000C0258FEE7FEE770477047FFF798BA99
:1011700070B59CB04C216846FFF7FEF8202113A8FB
:10118000FFF7FAF80220FFF721FB2148002421494C
:10119000026842F44042026002680A6842F00102BA
:1011A0000A60096801F001011B9101688904FCD5FE
:1011B0000DF1280C022009900521C0228CE80700BF
:1011C000C6030F9008250D9001230E90CDE9105411
:1011D000CDE9003668461294FFF7ECFC08B172B610
:1011E000FEE740201A903F210301CDE9165003226B
:1011F000CDE9180313AB13A883E816000421FFF709
:101200000FFB002801D072B6FEE71CB070BD0000D5
:10121000184802582C0400582E48F0B52E4A016890
:1012200041F470010160106800F00F00072804D23B
:10123000106820F00F00C01D106028490020274CC6
:1012400010340B68264D43F001030B6020600B68DF
:101250002B400B60136803F00F03072B04D91368AE
:1012600023F00F03DB1D13601C4C1E4A18341E4B69
:10127000261D371D2060194C1C4D28343060261D5A
:101280003860371D23603B1D35601C1D3A60251DED
:101290002E1D1860331D22602860326018600A68B5
:1012A0000E4B134C22F4802260330A6018602068D1
:1012B0006FF30F00B0F1005F03D20E490120C1F8B7
:1012C000080143F2D2000C49024B4A03803B0860FC
:1012D0001A60F0BD88ED00E0002000520044025882
:1012E0007FEDF6EA80020101000202020000FF0128
:1012F0000010005C0080005100400052FEE709072A
:1013000000284FEA116104DB00F1E02080F80014AE
:10131000704700F00F0000F1E02080F8141D7047C6
:10132000FFF7C6F9FFF724FFFFF7DCFE074C084D77
:1013300080212046FFF79EF908B1002200E001223B
:1013400028460221FFF79BF9F2E70000000C025843
:10135000000002584FF04070E1EE100A70470000A4
:10136000000001020304010203040607080900004B
:10137000901300080000002414000000D4020008AC
:10138000A41300081400002464060000F002000802
:101390000100000010000000000000000090D003D9
:0413A0000090D003E6
:040000050800029954
:00000001FF
